{
  "contractName": "Voting",
  "abi": [
    {
      "anonymous": false,
      "inputs": [
        {
          "indexed": true,
          "internalType": "address",
          "name": "voter",
          "type": "address"
        }
      ],
      "name": "VoteCast",
      "type": "event"
    },
    {
      "inputs": [
        {
          "internalType": "address",
          "name": "",
          "type": "address"
        }
      ],
      "name": "hasVoted",
      "outputs": [
        {
          "internalType": "bool",
          "name": "",
          "type": "bool"
        }
      ],
      "stateMutability": "view",
      "type": "function"
    }
  ],
  "bytecode": "0x6080604052348015600e575f80fd5b5060be80601a5f395ff3fe6080604052348015600e575f80fd5b50600436106026575f3560e01c806309eef43e14602a575b5f80fd5b60496035366004605d565b5f6020819052908152604090205460ff1681565b604051901515815260200160405180910390f35b5f60208284031215606c575f80fd5b81356001600160a01b03811681146081575f80fd5b939250505056fea2646970667358221220e8e7acadcb7afc19d2697e6aac5ec0575f552a3cafed4e6aa6be2c50d49f26e764736f6c63430008190033",
  "immutableReferences": {},
  "source": "// SPDX-License-Identifier: MIT\r\npragma solidity ^0.8.0;\r\n\r\ncontract Voting {\r\n    event VoteCast(address indexed voter);\r\n    mapping(address => bool) public hasVoted;\r\n\r\n    \r\n}\r\n",
  "sourcePath": "C:\\Users\\inonl\\OneDrive\\שולחן העבודה\\Pollster\\Code\\Blockchain\\contracts\\Voting.sol",
  "compiler": {
    "name": "solc",
    "version": "0.8.25+commit.b61c2a91.Emscripten.clang"
  },
  "schemaVersion": "3.4.16",
  "updatedAt": "2024-03-31T12:07:30.516Z",
  "devdoc": {
    "kind": "dev",
    "methods": {},
    "version": 1
  },
  "userdoc": {
    "kind": "user",
    "methods": {},
    "version": 1
  }
}