{
  "contractName": "HelloWorld",
  "abi": [
    {
      "inputs": [],
      "name": "greeting",
      "outputs": [
        {
          "internalType": "string",
          "name": "",
          "type": "string"
        }
      ],
      "stateMutability": "view",
      "type": "function",
      "constant": true
    },
    {
      "inputs": [
        {
          "internalType": "string",
          "name": "_greeting",
          "type": "string"
        }
      ],
      "name": "setGreeting",
      "outputs": [],
      "stateMutability": "nonpayable",
      "type": "function"
    },
    {
      "inputs": [],
      "name": "getGreeting",
      "outputs": [
        {
          "internalType": "string",
          "name": "",
          "type": "string"
        }
      ],
      "stateMutability": "view",
      "type": "function",
      "constant": true
    }
  ],
  "bytecode": "0x60c0604052600d60809081527f48656c6c6f2c20576f726c64210000000000000000000000000000000000000060a05260009061003c9082610120565b5034801561004957600080fd5b506101e6565b7f4e487b7100000000000000000000000000000000000000000000000000000000600052604160045260246000fd5b60028104600182168061009257607f821691505b6020821081036100cb577f4e487b7100000000000000000000000000000000000000000000000000000000600052602260045260246000fd5b50919050565b601f82111561011b576000818152602081206020601f860104810160208610156100f85750805b6020601f860104820191505b8181101561011757828155600101610104565b5050505b505050565b815167ffffffffffffffff81111561013a5761013a61004f565b61014e81610148845461007e565b846100d1565b602080601f831160018114610187576000841561016b5750858301515b60028086026008870290910a6000190419821617865550610117565b600085815260208120601f198616915b828110156101b657888601518255948401946001909101908401610197565b50858210156101d657878501516008601f88160260020a60001904191681555b5050505050600202600101905550565b610499806101f56000396000f3fe608060405234801561001057600080fd5b506004361061005d577c01000000000000000000000000000000000000000000000000000000006000350463a41368628114610062578063ef690cc014610077578063fe50cc7214610095575b600080fd5b6100756100703660046101fc565b61009d565b005b61007f6100ad565b60405161008c91906102ad565b60405180910390f35b61007f61013b565b60006100a9828261039d565b5050565b600080546100ba906102fb565b80601f01602080910402602001604051908101604052809291908181526020018280546100e6906102fb565b80156101335780601f1061010857610100808354040283529160200191610133565b820191906000526020600020905b81548152906001019060200180831161011657829003601f168201915b505050505081565b60606000805461014a906102fb565b80601f0160208091040260200160405190810160405280929190818152602001828054610176906102fb565b80156101c35780601f10610198576101008083540402835291602001916101c3565b820191906000526020600020905b8154815290600101906020018083116101a657829003601f168201915b5050505050905090565b7f4e487b7100000000000000000000000000000000000000000000000000000000600052604160045260246000fd5b60006020828403121561020e57600080fd5b813567ffffffffffffffff8082111561022657600080fd5b818401915084601f83011261023a57600080fd5b81358181111561024c5761024c6101cd565b604051601f8201601f19908116603f01168101908382118183101715610274576102746101cd565b8160405282815287602084870101111561028d57600080fd5b826020860160208301376000928101602001929092525095945050505050565b600060208083528351808285015260005b818110156102da578581018301518582016040015282016102be565b506000604082860101526040601f19601f8301168501019250505092915050565b60028104600182168061030f57607f821691505b602082108103610348577f4e487b7100000000000000000000000000000000000000000000000000000000600052602260045260246000fd5b50919050565b601f821115610398576000818152602081206020601f860104810160208610156103755750805b6020601f860104820191505b8181101561039457828155600101610381565b5050505b505050565b815167ffffffffffffffff8111156103b7576103b76101cd565b6103cb816103c584546102fb565b8461034e565b602080601f83116001811461040457600084156103e85750858301515b60028086026008870290910a6000190419821617865550610394565b600085815260208120601f198616915b8281101561043357888601518255948401946001909101908401610414565b508582101561045357878501516008601f88160260020a60001904191681555b505050505060020260010190555056fea264697066735822122028641b3c6ef6cf0d7d517b307ec5adefa552c2bd24b56f258f45a4081ed5357f64736f6c63430008150033",
  "immutableReferences": {},
  "source": "// SPDX-License-Identifier: MIT\r\npragma solidity ^0.8.0;\r\n\r\ncontract HelloWorld {\r\n    string public greeting = \"Hello, World!\";\r\n\r\n    function setGreeting(string memory _greeting) public {\r\n        greeting = _greeting;\r\n    }\r\n\r\n    function getGreeting() public view returns (string memory) {\r\n        return greeting;\r\n    }\r\n}\r\n",
  "sourcePath": "C:\\Users\\inonl\\OneDrive\\ \\shimi dieded on the window\\Pollster\\contracts\\HelloWorld.sol",
  "compiler": {
    "name": "solc",
    "version": "0.8.21+commit.d9974bed.Emscripten.clang"
  },
  "schemaVersion": "3.4.16",
  "updatedAt": "2024-04-25T08:21:38.602Z",
  "networkType": "ethereum",
  "devdoc": {
    "kind": "dev",
    "methods": {},
    "version": 1
  },
  "userdoc": {
    "kind": "user",
    "methods": {},
    "version": 1
  }
}