{
  "contractName": "Migrations",
  "abi": [
    {
      "inputs": [],
      "stateMutability": "nonpayable",
      "type": "constructor"
    },
    {
      "inputs": [],
      "name": "last_completed_migration",
      "outputs": [
        {
          "internalType": "uint256",
          "name": "",
          "type": "uint256"
        }
      ],
      "stateMutability": "view",
      "type": "function",
      "constant": true
    },
    {
      "inputs": [],
      "name": "owner",
      "outputs": [
        {
          "internalType": "address",
          "name": "",
          "type": "address"
        }
      ],
      "stateMutability": "view",
      "type": "function",
      "constant": true
    },
    {
      "inputs": [
        {
          "internalType": "uint256",
          "name": "completed",
          "type": "uint256"
        }
      ],
      "name": "setCompleted",
      "outputs": [],
      "stateMutability": "nonpayable",
      "type": "function"
    },
    {
      "inputs": [
        {
          "internalType": "address",
          "name": "new_address",
          "type": "address"
        }
      ],
      "name": "update",
      "outputs": [],
      "stateMutability": "nonpayable",
      "type": "function"
    }
  ],
  "bytecode": "0x608060405234801561001057600080fd5b5060008054600160a060020a03191633179055610255806100326000396000f3fe608060405234801561001057600080fd5b5060043610610068577c010000000000000000000000000000000000000000000000000000000060003504631c1b8772811461006d578063445df0ac146100825780638da5cb5b1461009e578063fdacd576146100e3575b600080fd5b61008061007b3660046101c9565b6100f6565b005b61008b60015481565b6040519081526020015b60405180910390f35b6000546100be9073ffffffffffffffffffffffffffffffffffffffff1681565b60405173ffffffffffffffffffffffffffffffffffffffff9091168152602001610095565b6100806100f1366004610206565b6101a5565b60005473ffffffffffffffffffffffffffffffffffffffff1633036101a2576001546040517ffdacd576000000000000000000000000000000000000000000000000000000008152829173ffffffffffffffffffffffffffffffffffffffff83169163fdacd5769161016e9160040190815260200190565b600060405180830381600087803b15801561018857600080fd5b505af115801561019c573d6000803e3d6000fd5b50505050505b50565b60005473ffffffffffffffffffffffffffffffffffffffff1633036101a257600155565b6000602082840312156101db57600080fd5b813573ffffffffffffffffffffffffffffffffffffffff811681146101ff57600080fd5b9392505050565b60006020828403121561021857600080fd5b503591905056fea2646970667358221220c09b73291e9e1f5c7890a6cab47486f6e68cdd1962b8d66da72006775975386764736f6c63430008150033",
  "immutableReferences": {},
  "source": "// SPDX-License-Identifier: MIT\r\npragma solidity ^0.8.0;\r\n\r\ncontract Migrations{\r\n    address public owner;\r\n    uint public last_completed_migration;\r\n\r\n    constructor() {\r\n        owner = msg.sender;\r\n    }\r\n\r\n    modifier restricted(){\r\n        if(msg.sender == owner) _;//continue\r\n    }\r\n\r\n    function setCompleted(uint completed) public restricted{\r\n        last_completed_migration = completed;\r\n    }\r\n\r\n    function update(address new_address) public restricted {\r\n    Migrations updated = Migrations(new_address);\r\n    updated.setCompleted(last_completed_migration);\r\n}\r\n\r\n}",
  "sourcePath": "C:\\Users\\inonl\\OneDrive\\שולחן העבודה\\shimi dieded on the window\\Pollster\\contracts\\Migrations.sol",
  "compiler": {
    "name": "solc",
    "version": "0.8.21+commit.d9974bed.Emscripten.clang"
  },
  "schemaVersion": "3.4.16",
  "updatedAt": "2024-04-26T15:06:05.432Z",
  "networkType": "ethereum",
  "devdoc": {
    "kind": "dev",
    "methods": {},
    "version": 1
  },
  "userdoc": {
    "kind": "user",
    "methods": {},
    "version": 1
  }
}