{
  "contractName": "Tether",
  "abi": [
    {
      "inputs": [],
      "stateMutability": "nonpayable",
      "type": "constructor"
    },
    {
      "inputs": [
        {
          "internalType": "address",
          "name": "",
          "type": "address"
        }
      ],
      "name": "balanceOf",
      "outputs": [
        {
          "internalType": "uint256",
          "name": "",
          "type": "uint256"
        }
      ],
      "stateMutability": "view",
      "type": "function",
      "constant": true
    },
    {
      "inputs": [],
      "name": "decimals",
      "outputs": [
        {
          "internalType": "uint8",
          "name": "",
          "type": "uint8"
        }
      ],
      "stateMutability": "view",
      "type": "function",
      "constant": true
    },
    {
      "inputs": [],
      "name": "name",
      "outputs": [
        {
          "internalType": "string",
          "name": "",
          "type": "string"
        }
      ],
      "stateMutability": "view",
      "type": "function",
      "constant": true
    },
    {
      "inputs": [],
      "name": "symbol",
      "outputs": [
        {
          "internalType": "string",
          "name": "",
          "type": "string"
        }
      ],
      "stateMutability": "view",
      "type": "function",
      "constant": true
    },
    {
      "inputs": [],
      "name": "totalSupply",
      "outputs": [
        {
          "internalType": "uint256",
          "name": "",
          "type": "uint256"
        }
      ],
      "stateMutability": "view",
      "type": "function",
      "constant": true
    }
  ],
  "bytecode": "0x608060405234801561001057600080fd5b5060408051808201909152600681527f546574686572000000000000000000000000000000000000000000000000000060208201526000906100529082610196565b5060408051808201909152600481527f555344540000000000000000000000000000000000000000000000000000000060208201526001906100949082610196565b50670de0b6b3a764000060028190556003805460ff191660121790553360009081526004602052604090205561025c565b7f4e487b7100000000000000000000000000000000000000000000000000000000600052604160045260246000fd5b60028104600182168061010857607f821691505b602082108103610141577f4e487b7100000000000000000000000000000000000000000000000000000000600052602260045260246000fd5b50919050565b601f821115610191576000818152602081206020601f8601048101602086101561016e5750805b6020601f860104820191505b8181101561018d5782815560010161017a565b5050505b505050565b815167ffffffffffffffff8111156101b0576101b06100c5565b6101c4816101be84546100f4565b84610147565b602080601f8311600181146101fd57600084156101e15750858301515b60028086026008870290910a600019041982161786555061018d565b600085815260208120601f198616915b8281101561022c5788860151825594840194600190910190840161020d565b508582101561024c57878501516008601f88160260020a60001904191681555b5050505050600202600101905550565b6102a38061026b6000396000f3fe608060405234801561001057600080fd5b5060043610610073577c0100000000000000000000000000000000000000000000000000000000600035046306fdde03811461007857806318160ddd14610096578063313ce567146100ad57806370a08231146100cc57806395d89b41146100ec575b600080fd5b6100806100f4565b60405161008d919061018f565b60405180910390f35b61009f60025481565b60405190815260200161008d565b6003546100ba9060ff1681565b60405160ff909116815260200161008d565b61009f6100da3660046101dd565b60046020526000908152604090205481565b610080610182565b600080546101019061021a565b80601f016020809104026020016040519081016040528092919081815260200182805461012d9061021a565b801561017a5780601f1061014f5761010080835404028352916020019161017a565b820191906000526020600020905b81548152906001019060200180831161015d57829003601f168201915b505050505081565b600180546101019061021a565b600060208083528351808285015260005b818110156101bc578581018301518582016040015282016101a0565b506000604082860101526040601f19601f8301168501019250505092915050565b6000602082840312156101ef57600080fd5b813573ffffffffffffffffffffffffffffffffffffffff8116811461021357600080fd5b9392505050565b60028104600182168061022e57607f821691505b602082108103610267577f4e487b7100000000000000000000000000000000000000000000000000000000600052602260045260246000fd5b5091905056fea264697066735822122096db5d4d78b3f4ad63c8b13adc69ebd6d48396868c66fbcc6909bf1a5f6c6a5a64736f6c63430008150033",
  "immutableReferences": {},
  "source": "// SPDX-License-Identifier: MIT\r\npragma solidity ^0.8.0;\r\n\r\n/**\r\n * @title Tether\r\n * @dev Simple ERC20 Token example, with fixed supply and token characteristics.\r\n */\r\ncontract Tether {\r\n    string public name;\r\n    string public symbol;\r\n    uint256 public totalSupply;\r\n    uint8 public decimals;\r\n\r\n    /**\r\n     * Token distribution to the creator of the contract.\r\n     *\r\n     * @dev Assigns the total supply to the transaction sender, which is the account\r\n     * that is deploying the contract.\r\n     */\r\n    mapping(address => uint256) public balanceOf;\r\n\r\n    /**\r\n     * @dev Sets the values for `name`, `symbol`, `totalSupply` and `decimals`.\r\n     * All four of these values are immutable: they can only be set once during\r\n     * construction.\r\n     */\r\n    constructor() {\r\n        name = \"Tether\";\r\n        symbol = \"USDT\";\r\n        totalSupply = 1000000000000000000; // 1 billion tokens, assuming 18 decimals\r\n        decimals = 18;\r\n        balanceOf[msg.sender] = totalSupply;\r\n    }\r\n}\r\n",
  "sourcePath": "C:\\Users\\Shai\\Desktop\\Pollster\\contracts\\Tether.sol",
  "compiler": {
    "name": "solc",
    "version": "0.8.21+commit.d9974bed.Emscripten.clang"
  },
  "schemaVersion": "3.4.16",
  "updatedAt": "2024-04-25T12:28:53.049Z",
  "networkType": "ethereum",
  "devdoc": {
    "details": "Simple ERC20 Token example, with fixed supply and token characteristics.",
    "kind": "dev",
    "methods": {
      "constructor": {
        "details": "Sets the values for `name`, `symbol`, `totalSupply` and `decimals`. All four of these values are immutable: they can only be set once during construction."
      }
    },
    "stateVariables": {
      "balanceOf": {
        "details": "Assigns the total supply to the transaction sender, which is the account that is deploying the contract."
      }
    },
    "title": "Tether",
    "version": 1
  },
  "userdoc": {
    "kind": "user",
    "methods": {
      "balanceOf(address)": {
        "notice": "Token distribution to the creator of the contract."
      }
    },
    "version": 1
  }
}