{
  "contractName": "token",
  "abi": [
    {
      "inputs": [],
      "stateMutability": "nonpayable",
      "type": "constructor"
    },
    {
      "inputs": [],
      "name": "minter",
      "outputs": [
        {
          "internalType": "address",
          "name": "",
          "type": "address"
        }
      ],
      "stateMutability": "view",
      "type": "function",
      "constant": true
    },
    {
      "inputs": [
        {
          "internalType": "address",
          "name": "receiver",
          "type": "address"
        },
        {
          "internalType": "uint256",
          "name": "amount",
          "type": "uint256"
        }
      ],
      "name": "mint",
      "outputs": [],
      "stateMutability": "nonpayable",
      "type": "function"
    },
    {
      "inputs": [
        {
          "internalType": "address",
          "name": "receiver",
          "type": "address"
        }
      ],
      "name": "send",
      "outputs": [],
      "stateMutability": "nonpayable",
      "type": "function"
    },
    {
      "inputs": [
        {
          "internalType": "address",
          "name": "account",
          "type": "address"
        }
      ],
      "name": "getBalance",
      "outputs": [
        {
          "internalType": "uint256",
          "name": "",
          "type": "uint256"
        }
      ],
      "stateMutability": "view",
      "type": "function",
      "constant": true
    }
  ],
  "bytecode": "0x608060405234801561001057600080fd5b5060008054600160a060020a031916331790556103b0806100326000396000f3fe608060405234801561001057600080fd5b5060043610610068577c0100000000000000000000000000000000000000000000000000000000600035046307546172811461006d5780633e58c58c1461009d57806340c10f19146100b2578063f8b2cb4f146100c5575b600080fd5b60005461008090600160a060020a031681565b604051600160a060020a0390911681526020015b60405180910390f35b6100b06100ab3660046102cd565b6100fc565b005b6100b06100c03660046102ef565b61020c565b6100ee6100d33660046102cd565b600160a060020a031660009081526001602052604090205490565b604051908152602001610094565b33600090815260016020819052604090912054101561017c576040517f08c379a000000000000000000000000000000000000000000000000000000000815260206004820152601660248201527f796f7520616c7265616479206861766520766f7465640000000000000000000060448201526064015b60405180910390fd5b60408051336c0100000000000000000000000081810260208085019190915284516014818603018152603485018652805190820120600160a060020a038716928302605486015285516048818703018152606890950186528451948201949094206000938452600190915284832083905590825292812080549293929161020283610348565b9190505550505050565b600054600160a060020a03163314610280576040517f08c379a000000000000000000000000000000000000000000000000000000000815260206004820181905260248201527f4f6e6c7920746865206d696e7465722063616e206d696e7420746f6b656e732e6044820152606401610173565b600160a060020a038216600090815260016020526040812080548392906102a8908490610361565b90915550505050565b8035600160a060020a03811681146102c857600080fd5b919050565b6000602082840312156102df57600080fd5b6102e8826102b1565b9392505050565b6000806040838503121561030257600080fd5b61030b836102b1565b946020939093013593505050565b7f4e487b7100000000000000000000000000000000000000000000000000000000600052601160045260246000fd5b60006001820161035a5761035a610319565b5060010190565b8082018082111561037457610374610319565b9291505056fea2646970667358221220244f9cbdc24963a772e5d94ccf923d167e0efc912ae4d53cc63e95fc76b2e4d764736f6c63430008150033",
  "immutableReferences": {},
  "source": "pragma solidity ^0.8.0;\r\n\r\ncontract token {\r\n    address public minter;\r\n    mapping(address => uint) balances;\r\n    constructor(){\r\n        minter = msg.sender;\r\n    }\r\n\r\n    function mint(address receiver, uint amount) public{\r\n        require(msg.sender == minter, \"Only the minter can mint tokens.\");\r\n        balances[receiver] += amount;\r\n    }\r\n\r\n\r\n    function send(address receiver) public{\r\n        if(balances[msg.sender] < 1)\r\n        revert(\"you already have voted\");\r\n        // Hash sender's and receiver's addresses\r\n        bytes32 senderHash = keccak256(abi.encodePacked(msg.sender));\r\n        bytes32 receiverHash = keccak256(abi.encodePacked(receiver));\r\n        \r\n        // Update balances\r\n        balances[msg.sender] = 0;\r\n        balances[receiver]++;\r\n\r\n    }\r\n\r\n        function getBalance(address account) public view returns (uint) {\r\n            return balances[account];\r\n    }\r\n    \r\n\r\n}",
  "sourcePath": "C:\\Users\\Shai\\Desktop\\Pollster\\contracts\\Token.sol",
  "compiler": {
    "name": "solc",
    "version": "0.8.21+commit.d9974bed.Emscripten.clang"
  },
  "schemaVersion": "3.4.16",
  "updatedAt": "2024-04-25T12:28:53.133Z",
  "networkType": "ethereum",
  "devdoc": {
    "kind": "dev",
    "methods": {},
    "version": 1
  },
  "userdoc": {
    "kind": "user",
    "methods": {},
    "version": 1
  }
}